{
  "contractName": "DespachoReceta",
  "abi": [
    {
      "constant": true,
      "inputs": [
        {
          "name": "",
          "type": "bytes32"
        }
      ],
      "name": "despachado",
      "outputs": [
        {
          "name": "",
          "type": "uint256"
        }
      ],
      "payable": false,
      "stateMutability": "view",
      "type": "function"
    },
    {
      "constant": true,
      "inputs": [],
      "name": "version",
      "outputs": [
        {
          "name": "",
          "type": "uint256"
        }
      ],
      "payable": false,
      "stateMutability": "view",
      "type": "function"
    },
    {
      "constant": true,
      "inputs": [],
      "name": "registroControlados",
      "outputs": [
        {
          "name": "",
          "type": "address"
        }
      ],
      "payable": false,
      "stateMutability": "view",
      "type": "function"
    },
    {
      "constant": true,
      "inputs": [],
      "name": "registroDespachadores",
      "outputs": [
        {
          "name": "",
          "type": "address"
        }
      ],
      "payable": false,
      "stateMutability": "view",
      "type": "function"
    },
    {
      "constant": true,
      "inputs": [
        {
          "name": "",
          "type": "bytes32"
        }
      ],
      "name": "recetado",
      "outputs": [
        {
          "name": "",
          "type": "uint256"
        }
      ],
      "payable": false,
      "stateMutability": "view",
      "type": "function"
    },
    {
      "inputs": [
        {
          "name": "_codigoFarmaco",
          "type": "bytes32[]"
        },
        {
          "name": "_cantidadRecetada",
          "type": "uint256[]"
        },
        {
          "name": "_registroControlados",
          "type": "address"
        },
        {
          "name": "_registroDespachadores",
          "type": "address"
        }
      ],
      "payable": false,
      "stateMutability": "nonpayable",
      "type": "constructor"
    },
    {
      "anonymous": false,
      "inputs": [
        {
          "indexed": false,
          "name": "_despachador",
          "type": "address"
        },
        {
          "indexed": false,
          "name": "_codigoFarmaco",
          "type": "bytes32"
        },
        {
          "indexed": false,
          "name": "_cantidadDespachada",
          "type": "uint256"
        },
        {
          "indexed": false,
          "name": "_precioLista",
          "type": "uint256"
        },
        {
          "indexed": false,
          "name": "_precioFinal",
          "type": "uint256"
        }
      ],
      "name": "Despachado",
      "type": "event"
    },
    {
      "constant": false,
      "inputs": [
        {
          "name": "_codigoFarmaco",
          "type": "bytes32"
        },
        {
          "name": "_cantidadDespachada",
          "type": "uint256"
        },
        {
          "name": "_precioLista",
          "type": "uint256"
        },
        {
          "name": "_precioFinal",
          "type": "uint256"
        }
      ],
      "name": "despachar",
      "outputs": [],
      "payable": false,
      "stateMutability": "nonpayable",
      "type": "function"
    }
  ],
  "bytecode": "0x60606040526001600055341561001457600080fd5b6040516104ff3803806104ff8339810160405280805182019190602001805182019190602001805190602001909190805190602001909190505060005b84518110156100b557838181518110151561006857fe5b9060200190602002015160036000878481518110151561008457fe5b9060200190602002015160001916600019168152602001908152602001600020819055508080600101915050610051565b82600160006101000a81548173ffffffffffffffffffffffffffffffffffffffff021916908373ffffffffffffffffffffffffffffffffffffffff16021790555081600260006101000a81548173ffffffffffffffffffffffffffffffffffffffff021916908373ffffffffffffffffffffffffffffffffffffffff16021790555050505050506103b48061014b6000396000f300606060405260043610610078576000357c0100000000000000000000000000000000000000000000000000000000900463ffffffff1680632535125c1461007d57806326e34b88146100b857806354fd4d50146100fa578063677eb01d146101235780636c732dd714610178578063d814be98146101cd575b600080fd5b341561008857600080fd5b6100a2600480803560001916906020019091905050610208565b6040518082815260200191505060405180910390f35b34156100c357600080fd5b6100f8600480803560001916906020019091908035906020019091908035906020019091908035906020019091905050610220565b005b341561010557600080fd5b61010d61031e565b6040518082815260200191505060405180910390f35b341561012e57600080fd5b610136610324565b604051808273ffffffffffffffffffffffffffffffffffffffff1673ffffffffffffffffffffffffffffffffffffffff16815260200191505060405180910390f35b341561018357600080fd5b61018b61034a565b604051808273ffffffffffffffffffffffffffffffffffffffff1673ffffffffffffffffffffffffffffffffffffffff16815260200191505060405180910390f35b34156101d857600080fd5b6101f2600480803560001916906020019091905050610370565b6040518082815260200191505060405180910390f35b60046020528060005260406000206000915090505481565b600460008560001916600019168152602001908152602001600020546003600086600019166000191681526020019081526020016000205411151561026457600080fd5b82600460008660001916600019168152602001908152602001600020600082825401925050819055507f72b54bc701a52ae7f08de1acc7937abefce9b6c424da6d06d2f0adb73ac61cff3385858585604051808673ffffffffffffffffffffffffffffffffffffffff1673ffffffffffffffffffffffffffffffffffffffff16815260200185600019166000191681526020018481526020018381526020018281526020019550505050505060405180910390a150505050565b60005481565b600160009054906101000a900473ffffffffffffffffffffffffffffffffffffffff1681565b600260009054906101000a900473ffffffffffffffffffffffffffffffffffffffff1681565b600360205280600052604060002060009150905054815600a165627a7a7230582077185e26b5caf52a5ace996c33a08209394fa62cbff85fa7f13edb22e4e2f9ff0029",
  "source": "pragma solidity 0.4.21;\n\ncontract DespachoReceta {\n    \n    //Version del contrato\n    uint256 public version = 1;\n    \n    //Direccion del registro de farmacos \n    address public registroControlados;\n    \n    //Direccion del registro de despachadores \n    address public registroDespachadores;\n\n    //Cantidad de farmaco recetado. CodigoFarmaco => Cantidad recetada\n    mapping (bytes32 => uint256) public recetado;\n    \n    //Cantidad de farmaco despachado. CodigoFarmaco => Cantidad despachada\n    mapping (bytes32 => uint256) public despachado;\n    \n    \n    //Constructor.\n    function DespachoReceta(\n        bytes32[] _codigoFarmaco, \n        uint256[] _cantidadRecetada,\n        address _registroControlados,\n        address _registroDespachadores\n        ) public {\n            \n        for(uint256 i;i<_codigoFarmaco.length;i++) {\n            recetado[_codigoFarmaco[i]] = _cantidadRecetada[i];\n        }\n        \n        registroControlados = _registroControlados;\n        registroDespachadores = _registroDespachadores;\n    }\n    \n    //[\"0x1\",\"0x2\"],[1,1],\"0xca35b7d915458ef540ade6068dfe2f44e8fa733c\",\"0xca35b7d915458ef540ade6068dfe2f44e8fa733c\"\n\n    //Despachar \n    function despachar(\n        bytes32 _codigoFarmaco, \n        uint256 _cantidadDespachada, \n        uint256 _precioLista, \n        uint256 _precioFinal\n        ) public {\n        \n        //Se requiere que el despachador este registrado \n        //require(registroDespachadores.isAllowed(msg.sender));\n        \n        //Se require que la cantidad despachada no sea mayor a la cantidad recetada.\n        //Ojo. Solo si el farmaco es controlado.\n        require(recetado[_codigoFarmaco] > despachado[_codigoFarmaco]);\n        \n        //Guardar cantidad despachada\n        despachado[_codigoFarmaco] += _cantidadDespachada;\n        \n        //Emitir evento Despachado\n        emit Despachado (\n            msg.sender, \n            _codigoFarmaco, \n            _cantidadDespachada,\n            _precioLista,\n            _precioFinal\n            );\n        \n    }\n    \n    event Despachado (\n        address _despachador, \n        bytes32 _codigoFarmaco, \n        uint256 _cantidadDespachada, \n        uint256 _precioLista, \n        uint256 _precioFinal\n    );\n     \n    \n}\n",
  "sourcePath": "/home/ajunge/work/rmeb/rmeb-contracts/contracts/DespachoReceta.sol",
  "compiler": {
    "name": "solc",
    "version": "0.4.21+commit.dfe3193c.Emscripten.clang"
  },
  "schemaVersion": "2.0.0",
  "updatedAt": "2018-07-10T06:21:03.144Z"
}