{
  "contractName": "RestrictedRegistry",
  "abi": [
    {
      "constant": true,
      "inputs": [],
      "name": "owner",
      "outputs": [
        {
          "name": "",
          "type": "address"
        }
      ],
      "payable": false,
      "stateMutability": "view",
      "type": "function"
    },
    {
      "constant": true,
      "inputs": [
        {
          "name": "",
          "type": "bytes32"
        }
      ],
      "name": "restricted",
      "outputs": [
        {
          "name": "",
          "type": "bool"
        }
      ],
      "payable": false,
      "stateMutability": "view",
      "type": "function"
    },
    {
      "constant": false,
      "inputs": [
        {
          "name": "newOwner",
          "type": "address"
        }
      ],
      "name": "transferOwnership",
      "outputs": [],
      "payable": false,
      "stateMutability": "nonpayable",
      "type": "function"
    },
    {
      "inputs": [],
      "payable": false,
      "stateMutability": "nonpayable",
      "type": "constructor"
    },
    {
      "anonymous": false,
      "inputs": [
        {
          "indexed": true,
          "name": "previousOwner",
          "type": "address"
        },
        {
          "indexed": true,
          "name": "newOwner",
          "type": "address"
        }
      ],
      "name": "OwnershipTransferred",
      "type": "event"
    },
    {
      "constant": false,
      "inputs": [
        {
          "name": "_codigoFarmaco",
          "type": "bytes32"
        },
        {
          "name": "_restricted",
          "type": "bool"
        }
      ],
      "name": "setRestricted",
      "outputs": [],
      "payable": false,
      "stateMutability": "nonpayable",
      "type": "function"
    },
    {
      "constant": true,
      "inputs": [
        {
          "name": "_codigoFarmaco",
          "type": "bytes32"
        }
      ],
      "name": "isRestricted",
      "outputs": [
        {
          "name": "_isRestricted",
          "type": "bool"
        }
      ],
      "payable": false,
      "stateMutability": "view",
      "type": "function"
    }
  ],
  "bytecode": "0x6060604052341561000f57600080fd5b336000806101000a81548173ffffffffffffffffffffffffffffffffffffffff021916908373ffffffffffffffffffffffffffffffffffffffff16021790555061043a8061005e6000396000f30060606040526004361061006d576000357c0100000000000000000000000000000000000000000000000000000000900463ffffffff16806384df369c146100725780638da5cb5b146100b1578063d6421f6f14610106578063dd2518cd14610145578063f2fde38b14610177575b600080fd5b341561007d57600080fd5b6100976004808035600019169060200190919050506101b0565b604051808215151515815260200191505060405180910390f35b34156100bc57600080fd5b6100c46101e2565b604051808273ffffffffffffffffffffffffffffffffffffffff1673ffffffffffffffffffffffffffffffffffffffff16815260200191505060405180910390f35b341561011157600080fd5b61012b600480803560001916906020019091905050610207565b604051808215151515815260200191505060405180910390f35b341561015057600080fd5b6101756004808035600019169060200190919080351515906020019091905050610227565b005b341561018257600080fd5b6101ae600480803573ffffffffffffffffffffffffffffffffffffffff169060200190919050506102b9565b005b600060016000836000191660001916815260200190815260200160002060009054906101000a900460ff169050919050565b6000809054906101000a900473ffffffffffffffffffffffffffffffffffffffff1681565b60016020528060005260406000206000915054906101000a900460ff1681565b6000809054906101000a900473ffffffffffffffffffffffffffffffffffffffff1673ffffffffffffffffffffffffffffffffffffffff163373ffffffffffffffffffffffffffffffffffffffff1614151561028257600080fd5b8060016000846000191660001916815260200190815260200160002060006101000a81548160ff0219169083151502179055505050565b6000809054906101000a900473ffffffffffffffffffffffffffffffffffffffff1673ffffffffffffffffffffffffffffffffffffffff163373ffffffffffffffffffffffffffffffffffffffff1614151561031457600080fd5b600073ffffffffffffffffffffffffffffffffffffffff168173ffffffffffffffffffffffffffffffffffffffff161415151561035057600080fd5b8073ffffffffffffffffffffffffffffffffffffffff166000809054906101000a900473ffffffffffffffffffffffffffffffffffffffff1673ffffffffffffffffffffffffffffffffffffffff167f8be0079c531659141344cd1fd0a4f28419497f9722a3daafe3b4186f6b6457e060405160405180910390a3806000806101000a81548173ffffffffffffffffffffffffffffffffffffffff021916908373ffffffffffffffffffffffffffffffffffffffff160217905550505600a165627a7a72305820e284000ee141550f6ca12761f590fef245d7c310029101b157d2c5d4c5d3a64d0029",
  "source": "pragma solidity 0.4.21;\n\nimport \"zeppelin-solidity/contracts/ownership/Ownable.sol\";\n\nimport \"./RestrictedRegistryInterface.sol\";\n\n\ncontract RestrictedRegistry is RestrictedRegistryInterface, Ownable {\n    \n    mapping (bytes32 => bool) public restricted;\n    \n    function RestrictedRegistry() public \n    {}\n\n    function setRestricted(bytes32 _codigoFarmaco, bool _restricted) public onlyOwner {\n        restricted[_codigoFarmaco] = _restricted;\n    }\n\n    function isRestricted(bytes32 _codigoFarmaco) public view returns(bool _isRestricted) {\n        return restricted[_codigoFarmaco];\n    }\n\n\n}\n",
  "sourcePath": "/home/ajunge/work/rmeb/rmeb-contracts/contracts/RestrictedRegistry.sol",
  "compiler": {
    "name": "solc",
    "version": "0.4.21+commit.dfe3193c.Emscripten.clang"
  },
  "schemaVersion": "2.0.0",
  "updatedAt": "2018-07-20T03:08:51.045Z"
}